{
  "_format": "hh-sol-artifact-1",
  "contractName": "Message",
  "sourceName": "contracts/Message.sol",
  "abi": [
    {
      "inputs": [],
      "stateMutability": "nonpayable",
      "type": "constructor"
    },
    {
      "anonymous": false,
      "inputs": [
        {
          "indexed": false,
          "internalType": "address",
          "name": "setter",
          "type": "address"
        },
        {
          "indexed": false,
          "internalType": "string",
          "name": "message",
          "type": "string"
        }
      ],
      "name": "MessageSet",
      "type": "event"
    },
    {
      "anonymous": false,
      "inputs": [
        {
          "indexed": false,
          "internalType": "address",
          "name": "previousOwner",
          "type": "address"
        },
        {
          "indexed": false,
          "internalType": "address",
          "name": "newOwner",
          "type": "address"
        }
      ],
      "name": "OwnershipTransfered",
      "type": "event"
    },
    {
      "inputs": [],
      "name": "getMessage",
      "outputs": [
        {
          "internalType": "string",
          "name": "",
          "type": "string"
        }
      ],
      "stateMutability": "view",
      "type": "function"
    },
    {
      "inputs": [],
      "name": "message",
      "outputs": [
        {
          "internalType": "string",
          "name": "",
          "type": "string"
        }
      ],
      "stateMutability": "view",
      "type": "function"
    },
    {
      "inputs": [],
      "name": "owner",
      "outputs": [
        {
          "internalType": "address",
          "name": "",
          "type": "address"
        }
      ],
      "stateMutability": "view",
      "type": "function"
    },
    {
      "inputs": [
        {
          "internalType": "string",
          "name": "_message",
          "type": "string"
        }
      ],
      "name": "setMessage",
      "outputs": [],
      "stateMutability": "nonpayable",
      "type": "function"
    },
    {
      "inputs": [
        {
          "internalType": "address",
          "name": "_newOwner",
          "type": "address"
        }
      ],
      "name": "transferOwnership",
      "outputs": [],
      "stateMutability": "nonpayable",
      "type": "function"
    }
  ],
  "bytecode": "0x6080604052348015600f57600080fd5b50336000806101000a81548173ffffffffffffffffffffffffffffffffffffffff021916908373ffffffffffffffffffffffffffffffffffffffff160217905550610d5d8061005f6000396000f3fe608060405234801561001057600080fd5b50600436106100575760003560e01c8063368b87721461005c5780638da5cb5b14610078578063ce6d41de14610096578063e21f37ce146100b4578063f2fde38b146100d2575b600080fd5b61007660048036038101906100719190610616565b6100ee565b005b610080610238565b60405161008d91906106a0565b60405180910390f35b61009e61025c565b6040516100ab919061073a565b60405180910390f35b6100bc6102ee565b6040516100c9919061073a565b60405180910390f35b6100ec60048036038101906100e79190610788565b61037c565b005b600073ffffffffffffffffffffffffffffffffffffffff163373ffffffffffffffffffffffffffffffffffffffff160361015d576040517f08c379a000000000000000000000000000000000000000000000000000000000815260040161015490610801565b60405180910390fd5b60008054906101000a900473ffffffffffffffffffffffffffffffffffffffff1673ffffffffffffffffffffffffffffffffffffffff163373ffffffffffffffffffffffffffffffffffffffff16146101eb576040517f08c379a00000000000000000000000000000000000000000000000000000000081526004016101e29061086d565b60405180910390fd5b80600190816101fa9190610aa3565b507f93fae8d45f984617bf4db97b9e45b32ce771ddcb02cf1ef852199d13af04a3e233600160405161022d929190610bf9565b60405180910390a150565b60008054906101000a900473ffffffffffffffffffffffffffffffffffffffff1681565b60606001805461026b906108bc565b80601f0160208091040260200160405190810160405280929190818152602001828054610297906108bc565b80156102e45780601f106102b9576101008083540402835291602001916102e4565b820191906000526020600020905b8154815290600101906020018083116102c757829003601f168201915b5050505050905090565b600180546102fb906108bc565b80601f0160208091040260200160405190810160405280929190818152602001828054610327906108bc565b80156103745780601f1061034957610100808354040283529160200191610374565b820191906000526020600020905b81548152906001019060200180831161035757829003601f168201915b505050505081565b60008054906101000a900473ffffffffffffffffffffffffffffffffffffffff1673ffffffffffffffffffffffffffffffffffffffff163373ffffffffffffffffffffffffffffffffffffffff161461040a576040517f08c379a000000000000000000000000000000000000000000000000000000000815260040161040190610c75565b60405180910390fd5b600073ffffffffffffffffffffffffffffffffffffffff168173ffffffffffffffffffffffffffffffffffffffff1603610479576040517f08c379a000000000000000000000000000000000000000000000000000000000815260040161047090610d07565b60405180910390fd5b806000806101000a81548173ffffffffffffffffffffffffffffffffffffffff021916908373ffffffffffffffffffffffffffffffffffffffff16021790555050565b6000604051905090565b600080fd5b600080fd5b600080fd5b600080fd5b6000601f19601f8301169050919050565b7f4e487b7100000000000000000000000000000000000000000000000000000000600052604160045260246000fd5b610523826104da565b810181811067ffffffffffffffff82111715610542576105416104eb565b5b80604052505050565b60006105556104bc565b9050610561828261051a565b919050565b600067ffffffffffffffff821115610581576105806104eb565b5b61058a826104da565b9050602081019050919050565b82818337600083830152505050565b60006105b96105b484610566565b61054b565b9050828152602081018484840111156105d5576105d46104d5565b5b6105e0848285610597565b509392505050565b600082601f8301126105fd576105fc6104d0565b5b813561060d8482602086016105a6565b91505092915050565b60006020828403121561062c5761062b6104c6565b5b600082013567ffffffffffffffff81111561064a576106496104cb565b5b610656848285016105e8565b91505092915050565b600073ffffffffffffffffffffffffffffffffffffffff82169050919050565b600061068a8261065f565b9050919050565b61069a8161067f565b82525050565b60006020820190506106b56000830184610691565b92915050565b600081519050919050565b600082825260208201905092915050565b60005b838110156106f55780820151818401526020810190506106da565b60008484015250505050565b600061070c826106bb565b61071681856106c6565b93506107268185602086016106d7565b61072f816104da565b840191505092915050565b600060208201905081810360008301526107548184610701565b905092915050565b6107658161067f565b811461077057600080fd5b50565b6000813590506107828161075c565b92915050565b60006020828403121561079e5761079d6104c6565b5b60006107ac84828501610773565b91505092915050565b7f596f752063616e27742073657420796f7572206f776e206d6573736167650000600082015250565b60006107eb601e836106c6565b91506107f6826107b5565b602082019050919050565b6000602082019050818103600083015261081a816107de565b9050919050565b7f596f7520617265206e6f7420746865206f776e65720000000000000000000000600082015250565b60006108576015836106c6565b915061086282610821565b602082019050919050565b600060208201905081810360008301526108868161084a565b9050919050565b7f4e487b7100000000000000000000000000000000000000000000000000000000600052602260045260246000fd5b600060028204905060018216806108d457607f821691505b6020821081036108e7576108e661088d565b5b50919050565b60008190508160005260206000209050919050565b60006020601f8301049050919050565b600082821b905092915050565b60006008830261094f7fffffffffffffffffffffffffffffffffffffffffffffffffffffffffffffffff82610912565b6109598683610912565b95508019841693508086168417925050509392505050565b6000819050919050565b6000819050919050565b60006109a061099b61099684610971565b61097b565b610971565b9050919050565b6000819050919050565b6109ba83610985565b6109ce6109c6826109a7565b84845461091f565b825550505050565b600090565b6109e36109d6565b6109ee8184846109b1565b505050565b5b81811015610a1257610a076000826109db565b6001810190506109f4565b5050565b601f821115610a5757610a28816108ed565b610a3184610902565b81016020851015610a40578190505b610a54610a4c85610902565b8301826109f3565b50505b505050565b600082821c905092915050565b6000610a7a60001984600802610a5c565b1980831691505092915050565b6000610a938383610a69565b9150826002028217905092915050565b610aac826106bb565b67ffffffffffffffff811115610ac557610ac46104eb565b5b610acf82546108bc565b610ada828285610a16565b600060209050601f831160018114610b0d5760008415610afb578287015190505b610b058582610a87565b865550610b6d565b601f198416610b1b866108ed565b60005b82811015610b4357848901518255600182019150602085019450602081019050610b1e565b86831015610b605784890151610b5c601f891682610a69565b8355505b6001600288020188555050505b505050505050565b60008154610b82816108bc565b610b8c81866106c6565b94506001821660008114610ba75760018114610bbd57610bf0565b60ff198316865281151560200286019350610bf0565b610bc6856108ed565b60005b83811015610be857815481890152600182019150602081019050610bc9565b808801955050505b50505092915050565b6000604082019050610c0e6000830185610691565b8181036020830152610c208184610b75565b90509392505050565b7f596f75206172656e277420746865206f776e6572000000000000000000000000600082015250565b6000610c5f6014836106c6565b9150610c6a82610c29565b602082019050919050565b60006020820190508181036000830152610c8e81610c52565b9050919050565b7f596f752063616e2774207472616e73666572206f776e65727368697020746f2060008201527f746865207a65726f206164647265737300000000000000000000000000000000602082015250565b6000610cf16030836106c6565b9150610cfc82610c95565b604082019050919050565b60006020820190508181036000830152610d2081610ce4565b905091905056fea26469706673582212209b2b940913da9d0870255dda1a7c74002611addfbfebf9357e3c795f820a476864736f6c634300081b0033",
  "linkReferences": {},
  "deployedLinkReferences": {}
}